:020000040800F2
:1000000000000220FDCC00080906000815060008C3
:100010001D060008250600082D0600080000000047
:100020000000000000000000000000001D3B000870
:1000300035060008000000005D3D0008A53D0008F1
:1000400041CD000841CD000841CD000841CD000858
:1000500041CD000841CD000841CD000841CD000848
:1000600041CD000841CD000841CD000841CD000838
:1000700041CD000841CD000841CD000841CD000828
:1000800041CD000841CD000841CD000841CD000818
:1000900041CD000841CD000841CD000841CD000808
:1000A00041CD000841CD000841CD000841CD0008F8
:1000B00041CD000841CD000841CD000841CD0008E8
:1000C00041CD000841CD000841CD000841CD0008D8
:1000D00041CD000841CD000841CD000841CD0008C8
:1000E00041CD000841CD000841CD000841CD0008B8
:1000F00041CD000841CD000841CD000841CD0008A8
:1001000041CD000841CD000841CD000841CD000897
:1001100041CD000841CD000841CD000841CD000887
:1001200041CD000841CD000841CD000841CD000877
:1001300041CD000841CD000841CD000841CD000867
:1001400041CD000841CD000841CD000841CD000857
:1001500041CD000841CD000841CD000841CD000847
:1001600041CD000841CD000841CD000841CD000837
:1001700041CD000841CD000841CD000841CD000827
:1001800041CD000841CD000841CD000841CD000817
:1001900041CD000841CD000841CD000841CD000807
:0C01A00041CD000841CD000841CD000811
:1001B00008B540F27840074BC2F200001B1A062B2C
:1001C00000D808BD40F20003C0F20003002BF8D0B5
:1001D0009847F6E77B04002008B540F2784040F2EB
:1001E0007843C2F20003C2F200001B1A9B1003EB1B
:1001F000D373591000D108BD40F20002C0F20002D2
:10020000002AF8D09047F6E710B540F27844C2F2E1
:100210000004237873B9FFF7CBFF40F20003C0F26C
:1002200000032BB14EF24C50C0F60000AFF300803B
:100230000123237010BD00BF08B540F20003C0F2D7
:1002400000034BB14EF24C5040F27C41C0F600002E
:10025000C2F20001AFF3008040F27440C2F200002D
:1002600003682BB140F20003C0F2000303B19847CA
:10027000BDE80840B0E700BF134B002B08BF114B8F
:100280009D46A3F5803A00218B460F461148124A3D
:10029000121A0CF0B5FD0D4B002B00D098470C4BFB
:1002A000002B00D098470020002104000D000B48CF
:1002B0000CF048FD0CF076FD2000290000F010F84D
:1002C0000CF046FD000008000000000000000000E7
:1002D0000000000078040020604B012071CD000870
:1002E00080B582B002AF47F230500421002204F002
:1002F000BFFB024643F2E423C2F201031A60042367
:1003000000930023019340F26530C0F600004DF2E7
:100310000811C0F600018222002305F02FFF0323FD
:1003200000930023019340F2C130C0F600004DF26B
:100330001411C0F600018222002305F01FFF0223E2
:1003400000930023019340F21540C0F600004DF2E7
:100350002411C0F600018222002305F00FFF06F0F1
:10036000E7FDFEE780B584B000AF78600123BB6095
:1003700043F2E423C2F201031A6807F108031046AE
:1003800019460022002304F013FD40F29443C2F208
:1003900000031A68BB681A4440F29443C2F2000397
:1003A0001A60BB680133BB60BA6842F210739A42AC
:1003B00001D10123FB60022006F0F2F9D8E700BF6B
:1003C00080B584B000AF78600023FB600BE040F2A2
:1003D0009843C2F200031A68FB681A4440F298433B
:1003E000C2F200031A6043F2E423C2F201031A6866
:1003F00007F10C03104619460022002305F054F8BB
:100400000346012BE3D04FF47A7006F0C9F900BF20
:10041000E9E700BF80B500AF40F29843C2F20003A5
:100420001A6840F29443C2F200031B689A4208D152
:1004300000F06AF84FF47A7006F0B2F900F076F83E
:1004400007E000F03BF84FF47A7006F0A9F900F0ED
:1004500047F842F2107006F0A3F9DDE780B500AF6F
:100460004020012101F0E6FD43F2E823C2F201033E
:100470004FF4C0421A6043F2E823C2F201030122A2
:100480001A7143F2E823C2F2010300229A7143F287
:10049000E823C2F2010303225A7143F2E823C2F2B5
:1004A00001030022DA714FF4C050C4F2020043F29B
:1004B000E821C2F2010100F0A3FF80BD80B400AFCB
:1004C0004FF4C053C4F202034FF4C052C4F202020C
:1004D000526942F480425A61BD465DF8047B704720
:1004E00080B400AF4FF4C053C4F202034FF4C052C3
:1004F000C4F2020251694BF6FF720A405A61BD46CE
:100500005DF8047B704700BF80B400AF4FF4C05368
:10051000C4F202034FF4C052C4F20202526942F420
:1005200000525A61BD465DF8047B704780B400AF4D
:100530004FF4C053C4F202034FF4C052C4F202029B
:1005400051694DF6FF720A405A61BD465DF8047B61
:10055000704700BF80B584B000AF78600023FB60B7
:10056000FB68002B04D1FFF7A9FF0123FB6003E028
:10057000FFF7B6FF0023FB604FF47A7006F010F926
:10058000EEE700BF80B584B000AF78600023FB6069
:10059000FB68002B04D1FFF7B7FF0123FB6003E0EA
:1005A000FFF7C4FF0023FB604FF4FA6006F0F8F891
:1005B000EEE700BF80B400AFBD465DF8047B704736
:1005C00080B483B000AF4FF0500383F31188BFF3C2
:1005D0006F8FBFF34F8F7B60FEE700BF80B400AF2B
:1005E000BD465DF8047B704780B485B000AF78608D
:1005F00039604FF0500383F31188BFF36F8FBFF35F
:100600004F8FFB60FEE700BF80B400AFBD465DF8D2
:10061000047B704780B400AFFEE700BF80B400AF3A
:10062000FEE700BF80B400AFFEE700BF80B400AFBC
:10063000FEE700BF80B400AFBD465DF8047B7047A5
:1006400080B500AF4FF46053C4F202034FF4605220
:10065000C4F20202126842F001021A604FF46053C1
:10066000C4F2020300229A604FF46053C4F2020302
:100670004FF46052C4F20202126822F0847222F433
:1006800080321A604FF46053C4F2020343F2100246
:10069000C2F200425A604FF46053C4F202034FF4B6
:1006A0006052C4F20202126822F480221A604FF4EF
:1006B0006053C4F202030022DA6000F0B3F84FF492
:1006C0006D43CEF200034FF000629A6080BD00BF20
:1006D00080B487B000AF00233B6100237B6102231D
:1006E000FB600023BB6002237B604FF46053C4F2C5
:1006F00002039B6803F00C033B613B69042B0DD0A4
:10070000082B15D0002B63D140F20403C2F2000382
:100710004FF41052C0F2F4021A6063E040F2040396
:10072000C2F200034FF49052C0F27A021A6059E00C
:100730004FF46053C4F202035B6803F480039B0D23
:10074000BB604FF46053C4F202035B6803F03F03E5
:100750007B60BB68002B13D04FF49053C0F27A0338
:100760007A68B3FBF2F24FF46053C4F202035968A3
:1007700047F6C0730B409B0903FB02F37B6112E059
:100780004FF41053C0F2F4037A68B3FBF2F24FF463
:100790006053C4F20203596847F6C0730B409B09CB
:1007A00003FB02F37B614FF46053C4F202035B6806
:1007B00003F440331B0C01335B00FB607A69FB6878
:1007C000B2FBF3F240F20403C2F200031A6009E044
:1007D00040F20403C2F200034FF41052C0F2F402DC
:1007E0001A6000BF4FF46053C4F202039B6803F029
:1007F000F0031A0940F20803C2F200039B5CDBB26B
:100800003B6140F20403C2F200031A683B69DA401C
:1008100040F20403C2F200031A601C37BD465DF8C3
:10082000047B704780B483B000AF00237B6000235B
:100830003B604FF46053C4F202034FF46052C4F2C1
:100840000202126842F480321A604FF46053C4F21C
:1008500002031B6803F400333B607B6801337B6059
:100860003B68002B03D17B68B3F5A04FEDD14FF46B
:100870006053C4F202031B6803F40033002B02D060
:1008800001233B6001E000233B603B68012B40F00B
:1008900082804FF46053C4F202034FF46052C4F2FA
:1008A0000202126C42F080521A644FF4E043C4F228
:1008B00000034FF4E042C4F20002126842F44042E6
:1008C0001A604FF46053C4F202034FF46052C4F252
:1008D000020292689A604FF46053C4F202034FF42C
:1008E0006052C4F20202926842F400429A604FF4ED
:1008F0006053C4F202034FF46052C4F202029268E1
:1009000042F4A0529A604FF46053C4F2020345F2DD
:100910000842C0F240725A604FF46053C4F20203BE
:100920004FF46052C4F20202126842F080721A6000
:1009300000BF4FF46053C4F202031B6803F000735E
:10094000002BF6D04FF47053C4F2020340F205625C
:100950001A604FF46053C4F202034FF46052C4F2C1
:100960000202926822F003029A604FF46053C4F2CC
:1009700002034FF46052C4F20202926842F0020293
:100980009A6000BF4FF46053C4F202039B6803F007
:100990000C03082BF6D10C37BD465DF8047B70477D
:1009A00080B584B000AF0346FB71FA794DF238137D
:1009B000C0F6000353F822301846012101F03AFB3B
:1009C000FA794DF23413C0F6000333F81230BB60ED
:1009D00001233B730023BB730123FB7302237B734F
:1009E000FA7940F21803C2F2000353F8222007F10B
:1009F00008031046194600F003FD1037BD4680BDC0
:100A000080B483B000AF0346FB71FA7940F218035B
:100A1000C2F2000353F82220F9794DF23413C0F6E4
:100A2000000333F8113013830C37BD465DF8047BA7
:100A3000704700BF80B483B000AF0346FB71FA7902
:100A400040F21803C2F2000353F82220F9794DF264
:100A50003413C0F6000333F8113053830C37BD460E
:100A60005DF8047B704700BF80B483B000AF0346DD
:100A7000FB71FA7940F21803C2F2000353F8222006
:100A8000F97940F21803C2F2000353F82130596992
:100A9000F8794DF23413C0F6000333F810304B40B0
:100AA00053610C37BD465DF8047B704780B588B054
:100AB00000AF02460B46FA71BB71012318460121B3
:100AC00001F0B8FA4FF48040012101F053FB0023FC
:100AD0003B770223FB770123BB61FA7940F22003C5
:100AE000C2F2000353F8222007F1180310461946FA
:100AF00000F086FCBB79012B1FD100220023104699
:100B0000194600F05FFA01233B6100233B7508237F
:100B10007B750123BB7507F11003184601F0B8FD82
:100B200006233B730F237B730F23BB730123FB73DC
:100B300007F10C03184600F0DBFA2037BD4680BDF4
:100B400080B582B000AF0346FB71FA7940F2200312
:100B5000C2F2000353F8222001231046194600F088
:100B600019FD034618460837BD4680BD80B582B0E2
:100B700000AF4FF4B840C4F20000002101F0C2FF02
:100B80004FF4B840C4F2000001F09CFE4FF40000A6
:100B9000002101F0C7FA4FF480733B6000233B71E2
:100BA0000023FB713B460020C4F20200194600F00E
:100BB00027FC4FF400733B603B464FF40060C4F2E7
:100BC0000200194600F01CFC43F22C33C2F2010370
:100BD0000F221A7043F22C33C2F2010300225A7022
:100BE00043F22C33C2F2010300229A7043F22C33F9
:100BF000C2F201030022DA7043F22C30C2F201008B
:100C000000F076FA43F22C33C2F201030D221A707F
:100C100043F22C33C2F2010300225A7043F22C3308
:100C2000C2F2010300229A7043F22C30C2F201009A
:100C300000F05EFA46F27000C4F20200002102F0F9
:100C4000EFFC46F24000C4F20200002102F0E8FC92
:100C500046F27000C4F2020002F03EFB46F2400091
:100C6000C4F2020002F038FB0837BD4680BD00BF69
:100C700080B582B000AF4FF40000012101F052FABC
:100C80000520012101F0D6F94FF48040012101F047
:100C900071FA4FF40000012101F00CFB4FF4000049
:100CA000002101F007FB4FF480733B6002233B718E
:100CB00002237B710123BB710023FB713B460020A3
:100CC000C4F20200194600F09BFB4FF400733B6036
:100CD0003B464FF40060C4F20200194600F090FB5E
:100CE0000020C4F202000821042200F0F7FC4FF4B7
:100CF0000060C4F202000921042200F0EFFC43F27C
:100D00002C33C2F201030F221A7043F22C33C2F2C9
:100D1000010300225A7043F22C33C2F20103002275
:100D20009A7043F22C33C2F201030122DA7043F2CB
:100D30002C30C2F2010000F0DBF943F22C33C2F296
:100D400001030D221A7043F22C33C2F20103002278
:100D50005A7043F22C33C2F2010300229A7043F21C
:100D60002C30C2F2010000F0C3F94FF40010012151
:100D700001F060F946F27000C4F202003D21C2F2B7
:100D8000000102F089FD46F27000C4F20200002169
:100D900002F046FC46F27000C4F2020002F09CFA37
:100DA00043F2F023C2F201034FF0C0621A6043F233
:100DB000F023C2F2010345F61042C4F200025A6069
:100DC00043F2F023C2F2010300229A6043F2F023BF
:100DD000C2F201034022DA6043F2F023C2F20103BF
:100DE0004FF6FF721A6143F2F023C2F201030022B0
:100DF0005A6143F2F023C2F201034FF480629A6118
:100E000043F2F023C2F201030022DA6143F2F0233D
:100E1000C2F2010300221A6243F2F023C2F201037C
:100E200000225A6243F2F023C2F201034FF440322F
:100E30009A6243F2F023C2F201030422DA6243F21F
:100E4000F023C2F2010303221A6343F2F023C2F239
:100E5000010300225A6343F2F023C2F2010300228D
:100E60009A6346F27000C4F2020043F2F021C2F22B
:100E7000010102F047FB46F24000C4F202000021EB
:100E8000C1F23D0102F008FD46F24000C4F202004A
:100E9000002102F0C5FB46F24000C4F2020002F05D
:100EA0001BFA46F24000C4F2020043F2F021C2F203
:100EB000010102F027FB46F27000C4F2020010218B
:100EC000012202F019FD46F24000C4F20200102196
:100ED000012202F011FD0837BD4680BD80B584B007
:100EE00000AFF860B9607A607B68002B1CD143F2D8
:100EF000F023C2F20103FA689A6043F2F023C2F2CF
:100F000001034022DA6043F2F023C2F20103BA681F
:100F10001A6146F27000C4F2020043F2F021C2F2FC
:100F2000010102F0EFFA1BE043F2F023C2F20103E9
:100F3000FA689A6043F2F023C2F201030022DA60F9
:100F400043F2F023C2F20103BA681A6146F240008C
:100F5000C4F2020043F2F021C2F2010102F0D2FA1F
:100F60001037BD4680BD00BF80B500AF4FF4804054
:100F7000012101F0C7F94FF48040002101F0C2F9CE
:100F800080BD00BF80B483B000AF0346FB714FF457
:100F90006053C4F20103FA791A600C37BD465DF85C
:100FA000047B704780B483B000AF0346FB712023FD
:100FB000C4F22723FA791A600C37BD465DF8047B2A
:100FC000704700BF90B484B000AF02460B46FA7180
:100FD000BB710023FB60BB7903F003039B000F226E
:100FE00002FA03F3FB604FF46053C4F20103BA79D1
:100FF0009208D2B210464FF46052C4F20102B9799D
:101000008908C9B2023152F82110FA68D24311405E
:10101000821C43F822104FF46053C4F20103BA79E2
:101020009208D2B210464FF46052C4F20102B9796C
:101030008908C9B2023152F82110FC79BA7902F05C
:101040000302920004FA02F21143821C43F82210B8
:101050001037BD4690BC704780B483B000AF786055
:10106000DC23C4F227237A681A600C37BD465DF88A
:10107000047B704780B483B000AF0346FB714FF42C
:101080008063C4F22723FA791A600C37BD465DF8F5
:10109000047B704780B483B000AF0023FB714FF432
:1010A0006053C4F201031B6A03F48073002B02D067
:1010B0000123FB7101E00023FB71FB7918460C371B
:1010C000BD465DF8047B704780B483B000AF7860A4
:1010D0004FF46D43CEF200037A6842F0BF6242F4EF
:1010E0000032DA600C37BD465DF8047B704700BF04
:1010F00080B485B000AF78600023FB730023BB731E
:101100000F237B737B68DB78002B40D04FF46D435B
:10111000CEF20003DB68DB4303F4E0631B0AFB73DE
:10112000FB7BC3F10403BB737A7BFB7B42FA03F3C3
:101130007B737B685B781A46BB7B02FA03F3FB7315
:101140007B689A787B7B1340DAB2FB7B1343FB739B
:10115000FB7B1B01FB734FF46143CEF200037A6803
:1011600012781344FA7B83F800234FF46143CEF2E4
:1011700000037A6812785209D2B27968097801F0CE
:101180001F01012000FA01F143F8221011E04FF491
:101190006143CEF200037A6812785209D2B27968BC
:1011A000097801F01F01012000FA01F1203243F813
:1011B00022101437BD465DF8047B704780B483B0BD
:1011C00000AF786039604FF46D43CEF200033A68A7
:1011D00022F0604222F07F0279680A439A600C375D
:1011E000BD465DF8047B704780B483B000AF024613
:1011F0000B46FA71BB71BB79002B0CD04FF46D43D9
:10120000CEF200034FF46D42CEF200021169FA797A
:101210000A431A610CE04FF46D43CEF200034FF421
:101220006D42CEF200021169FA79D2430A401A6186
:101230000C37BD465DF8047B704700BF80B483B0B7
:1012400000AF78607B68042B0CD14EF21003CEF215
:1012500000034EF21002CEF20002126842F00402C5
:101260001A600BE04EF21003CEF200034EF21002B1
:10127000CEF20002126822F004021A600C37BD465A
:101280005DF8047B704700BF80B582B000AF786026
:101290007A680023C4F202039A4208D10120012196
:1012A00000F090FF0120002100F08CFFA4E07A689C
:1012B0004FF48063C4F202039A4208D10220012154
:1012C00000F080FF0220002100F07CFF94E07A68AB
:1012D0004FF40063C4F202039A4208D104200121B2
:1012E00000F070FF0420002100F06CFF84E07A68B9
:1012F0004FF44063C4F202039A4208D1082001214E
:1013000000F060FF0820002100F05CFF74E07A68C4
:101310004FF48053C4F202039A4208D110200121F5
:1013200000F050FF1020002100F04CFF64E07A68CC
:101330004FF4A053C4F202039A4208D120200121A5
:1013400000F040FF2020002100F03CFF54E07A68CC
:101350004FF4C053C4F202039A4208D14020012145
:1013600000F030FF4020002100F02CFF44E07A68BC
:101370004FF4E053C4F202039A4208D180200121C5
:1013800000F020FF8020002100F01CFF34E07A688C
:101390004FF40053C4F202039A420AD14FF4807012
:1013A000012100F00FFF4FF48070002100F00AFFD0
:1013B00022E07A684FF41053C4F202039A420AD131
:1013C0004FF40070012100F0FDFE4FF40070002189
:1013D00000F0F8FE10E07A684FF42053C4F20203E4
:1013E0009A4209D14FF48060012100F0EBFE4FF4E6
:1013F0008060002100F0E6FE0837BD4680BD00BFDA
:1014000080B487B000AF7860396000237B6100232F
:101410003B610023FB6000237B6176E07B69012256
:1014200002FA03F33B613B681A683B691340FB60B7
:10143000FA683B699A4265D17B681A687B695B00F0
:10144000032101FA03F3DB431A407B681A607B68CF
:101450001A683B681B7919467B695B0001FA03F344
:101460001A437B681A603B681B79012B03D03B68E9
:101470001B79022B2ED17B689A687B695B00032164
:1014800001FA03F3DB431A407B689A607B689A6831
:101490003B685B7919467B695B0001FA03F31A43E9
:1014A0007B689A607B685A687B699BB2012101FA6C
:1014B00003F3DB431A407B685A607B685A683B68D9
:1014C0009B7919467B699BB201FA03F39BB21A43DD
:1014D0007B685A607B68DA687B699BB25B0003219A
:1014E00001FA03F3DB431A407B68DA607B68DA6851
:1014F0003B68DB7919467B695B0001FA03F31A4309
:101500007B68DA607B6901337B617B690F2B85D94E
:101510001C37BD465DF8047B704700BF80B483B0C4
:1015200000AF78607B684FF6FF721A607B6800221C
:101530001A717B6800225A717B6800229A717B685D
:101540000022DA710C37BD465DF8047B704700BF9E
:1015500080B485B000AF78600B467B804FF4803359
:10156000FB607A88FB681343FB60FA687B68DA618A
:101570007A887B68DA61FA687B68DA617B68DB69A4
:10158000FB607B68DB69FB601437BD465DF8047B5C
:10159000704700BF80B485B000AF78600B467B8099
:1015A0000023FB737B681A697B881340002B02D0F1
:1015B0000123FB7301E00023FB73FB7B1846143708
:1015C000BD465DF8047B704780B483B000AF78609F
:1015D0007B681B699BB218460C37BD465DF8047BDF
:1015E000704700BF80B485B000AF78600B467B8049
:1015F0000023FB737B685A697B881340002B02D061
:101600000123FB7301E00023FB73FB7B18461437B7
:10161000BD465DF8047B704780B483B000AF78604E
:101620007B685B699BB218460C37BD465DF8047B4E
:10163000704700BF80B483B000AF78600B467B80FA
:101640007B687A881A830C37BD465DF8047B704747
:1016500080B483B000AF78600B467B807B687A886B
:101660005A830C37BD465DF8047B704780B483B065
:1016700000AF786013460A467A807B707B78002B37
:1016800003D07B687A881A8302E07B687A885A8361
:101690000C37BD465DF8047B704700BF80B483B053
:1016A00000AF78600B467B807A887B685A610C3784
:1016B000BD465DF8047B704780B483B000AF7860AE
:1016C0000B467B807B685A697B885A407B685A61ED
:1016D0000C37BD465DF8047B704700BF80B485B011
:1016E00000AF786013460A467A807B700023FB6067
:1016F0000023BB607A787B8803F007039B0002FA23
:1017000003F3FB607B88DB089BB21A467B88DB080F
:101710009BB219467B68083153F821107B8803F08F
:1017200007039B000F2000FA03F3DB4319407B689B
:10173000083243F822107B88DB089BB21A467B688C
:10174000083253F82220FB681343BB607B88DB0818
:101750009BB21A467B680832B96843F822101437E6
:10176000BD465DF8047B704780B400AF4FF4605312
:10177000C4F202034FF46052C4F20202126842F053
:1017800001021A604FF46053C4F2020300229A600F
:101790004FF46053C4F202034FF46052C4F20202E9
:1017A000126822F0A85222F410221A604FF46053FB
:1017B000C4F2020343F21002C2F200425A604FF434
:1017C0006053C4F202034FF44052C2F20002C3F865
:1017D00084204FF46053C4F202034FF44052C2F22B
:1017E0000042C3F888204FF46053C4F202034FF460
:1017F0006052C4F20202126822F480221A604FF48E
:101800006053C4F202030022DA604FF46053C4F262
:1018100002030022C3F88C20BD465DF8047B7047AC
:1018200080B483B000AF0346FB7143F60203C4F2F9
:10183000020300221A7043F60203C4F20203FA798B
:101840001A700C37BD465DF8047B704780B582B0D6
:1018500000AF00233B600023FB710023BB713120EC
:1018600000F06EFE0346BB713B6801333B603B6892
:10187000B3F5A04F02D0BB79002BF0D0312000F09F
:101880005FFE0346002B02D00123FB7101E0002321
:10189000FB71FB7918460837BD4680BD80B485B022
:1018A00000AF0346FB710023FB604FF46053C4F2AA
:1018B00002031B68FB60FB6823F0F803FB60FB7905
:1018C000DB00FA681343FB604FF46053C4F2020379
:1018D000FA681A601437BD465DF8047B704700BF94
:1018E00080B483B000AF0346FB710023C4F24723EA
:1018F000FA791A600C37BD465DF8047B704700BF6B
:1019000080B483B000AF0346FB7143F67003C4F2AA
:10191000020300221A7043F67003C4F2020300228D
:101920001A70FB79012B02D0042B07D00DE043F68F
:101930007003C4F2020301221A7006E043F670033A
:10194000C4F2020305221A7000BF0C37BD465DF8D1
:10195000047B704780B483B000AF0346FB714FF443
:101960006863C4F24723FA791A600C37BD465DF804
:10197000047B704780B485B000AFF860B9607A60CE
:101980003B604FF46053C4F202037A689101BA6875
:1019900011433A685208013A12041143FA6811439C
:1019A000BA6912060A435A601437BD465DF8047BD3
:1019B000704700BF80B483B000AF0346FB71602363
:1019C000C4F24723FA791A600C37BD465DF8047BF0
:1019D000704700BF80B485B000AFF860B9607A602E
:1019E0004FF46053C4F20203FA689101BA68120618
:1019F00011437A6812070A43C3F884201437BD469E
:101A00005DF8047B704700BF80B483B000AF03462D
:101A1000FB716823C4F24723FA791A600C37BD467C
:101A20005DF8047B704700BF80B485B000AFF860FC
:101A3000B9607A604FF46053C4F20203FA6891010E
:101A4000BA68120611437A6812070A43C3F888205D
:101A50001437BD465DF8047B704700BF80B483B087
:101A600000AF0346FB717023C4F24723FA791A6072
:101A70000C37BD465DF8047B704700BF80B483B06F
:101A800000AF0346FB714C23C4F24723FA791A6076
:101A90000C37BD465DF8047B704700BF80B485B04D
:101AA00000AF786039600023FB604FF46053C4F2EC
:101AB00002039B68FB60FB6823F0EC63FB607A68C1
:101AC0003B681343FA681343FB604FF46053C4F25E
:101AD0000203FA689A601437BD465DF8047B7047CC
:101AE00080B485B000AF786039600023FB604FF4AC
:101AF0006053C4F202039B68FB60FB6823F07843E9
:101B0000FB607A683B681343FA681343FB604FF449
:101B10006053C4F20203FA689A601437BD465DF858
:101B2000047B704780B485B000AF78600023FB6011
:101B30004FF46053C4F202039B68FB60FB6823F020
:101B40000303FB60FA687B681343FB604FF4605348
:101B5000C4F20203FA689A601437BD465DF8047B4C
:101B6000704700BF80B400AF4FF46053C4F202036B
:101B70009B68DBB203F00C03DBB21846BD465DF890
:101B8000047B704780B485B000AF78600023FB60B1
:101B90004FF46053C4F202039B68FB60FB6823F0C0
:101BA000F003FB60FA687B681343FB604FF46053FB
:101BB000C4F20203FA689A601437BD465DF8047BEC
:101BC000704700BF80B485B000AF78600023FB6031
:101BD0004FF46053C4F202039B68FB60FB6823F47C
:101BE000E053FB60FA687B681343FB604FF460537B
:101BF000C4F20203FA689A601437BD465DF8047BAC
:101C0000704700BF80B485B000AF78600023FB60F0
:101C10004FF46053C4F202039B68FB60FB6823F43B
:101C20006043FB607B68DB00FA681343FB604FF4A2
:101C30006053C4F20203FA689A601437BD465DF837
:101C4000047B704780B489B000AF78600023BB612B
:101C500000237B610023FB6102233B610023FB60C7
:101C60000223BB604FF46053C4F202039B6803F08D
:101C70000C03BB61BB69042B0AD0082B0FD0002BCF
:101C80005AD17A684FF41053C0F2F40313605AE04B
:101C90007A684FF49053C0F27A03136053E04FF424
:101CA0006053C4F202035B6803F480039B0DFB6086
:101CB0004FF46053C4F202035B6803F03F03BB6060
:101CC000FB68002B13D04FF49053C0F27A03BA682C
:101CD000B3FBF2F24FF46053C4F20203596847F6C3
:101CE000C0730B409B0903FB02F3FB6112E04FF44E
:101CF0001053C0F2F403BA68B3FBF2F24FF460532E
:101D0000C4F20203596847F6C0730B409B0903FBFA
:101D100002F3FB614FF46053C4F202035B6803F407
:101D200040331B0C01335B003B61FA693B69B2FB3A
:101D3000F3F27B681A6006E07A684FF41053C0F241
:101D4000F403136000BF4FF46053C4F202039B68B6
:101D500003F0F003BB61BB691B09BB6140F22403C4
:101D6000C2F20003BA6913441B78DBB27B617B6863
:101D70001A687B69DA407B685A604FF46053C4F29A
:101D800002039B6803F4E053BB61BB699B0ABB6120
:101D900040F22403C2F20003BA6913441B78DBB299
:101DA0007B617B685A687B69DA407B689A604FF494
:101DB0006053C4F202039B6803F46043BB61BB69D8
:101DC0005B0BBB6140F22403C2F20003BA69134407
:101DD0001B78DBB27B617B685A687B69DA407B6881
:101DE000DA602437BD465DF8047B704780B485B067
:101DF00000AF78600023FB607B6803F44073B3F5A9
:101E0000407F17D14FF46053C4F202039B68FB601C
:101E1000FB6823F4F813FB607B6823F0704323F422
:101E20004073FA681343FB604FF46053C4F202033B
:101E3000FA689A604FF46053C4F202034FF46052A0
:101E4000C4F20202116F7A68C2F30B020A431A67E6
:101E50001437BD465DF8047B704700BF80B483B083
:101E600000AF0346FB7140F63C63C4F24723FA79A6
:101E70001A600C37BD465DF8047B704780B483B0B0
:101E800000AF0346FB714FF46463C4F24723FA7951
:101E90001A600C37BD465DF8047B704780B483B090
:101EA00000AF78604FF4AE73C4F247237A681A60CB
:101EB0000C37BD465DF8047B704700BF80B485B029
:101EC00000AF78600023FB604FF46053C4F202035C
:101ED000D3F88C30FB60FB6823F01F03FB607B684A
:101EE000013BFA681343FB604FF46053C4F20203F2
:101EF000FA68C3F88C201437BD465DF8047B704740
:101F000080B485B000AF78600023FB604FF460536D
:101F1000C4F20203D3F88C30FB60FB6823F4F8535F
:101F2000FB607B68013B1B02FA681343FB604FF4C4
:101F30006053C4F20203FA68C3F88C201437BD461C
:101F40005DF8047B704700BF80B485B000AF786057
:101F50000023FB604FF46053C4F20203D3F88C30CB
:101F6000FB60FB6823F44013FB60FA687B68134353
:101F7000FB604FF46053C4F20203FA68C3F88C208C
:101F80001437BD465DF8047B704700BF80B485B050
:101F900000AF78600023FB604FF46053C4F202038B
:101FA000D3F88C30FB60FB6823F44003FB60FA68D5
:101FB0007B681343FB604FF46053C4F20203FA687A
:101FC000C3F88C201437BD465DF8047B704700BF12
:101FD00080B485B000AF78600023FB604FF460539D
:101FE000C4F20203D3F88C30FB60FB6823F4403367
:101FF000FB60FA687B681343FB604FF46053C4F2E4
:102000000203FA68C3F88C201437BD465DF8047BE0
:10201000704700BF80B483B000AF78604FF48F5337
:10202000C4F247237A681A600C37BD465DF8047B1A
:10203000704700BF80B483B000AF78600B46FB7080
:10204000FB78002B0CD04FF46053C4F202034FF422
:102050006052C4F20202116B7A680A431A630CE000
:102060004FF46053C4F202034FF46052C4F2020210
:10207000116B7A68D2430A401A630C37BD465DF88B
:10208000047B704780B483B000AF78600B46FB7070
:10209000FB78002B0CD04FF46053C4F202034FF4D2
:1020A0006052C4F20202516B7A680A435A630CE030
:1020B0004FF46053C4F202034FF46052C4F20202C0
:1020C000516B7A68D2430A405A630C37BD465DF8BB
:1020D000047B704780B483B000AF78600B46FB7020
:1020E000FB78002B0CD04FF46053C4F202034FF482
:1020F0006052C4F20202916B7A680A439A630CE060
:102100004FF46053C4F202034FF46052C4F202026F
:10211000916B7A68D2430A409A630C37BD465DF8EA
:10212000047B704780B483B000AF78600B46FB70CF
:10213000FB78002B0CD04FF46053C4F202034FF431
:102140006052C4F20202116C7A680A431A640CE00D
:102150004FF46053C4F202034FF46052C4F202021F
:10216000116C7A68D2430A401A640C37BD465DF898
:10217000047B704780B483B000AF78600B46FB707F
:10218000FB78002B0CD04FF46053C4F202034FF4E1
:102190006052C4F20202516C7A680A435A640CE03D
:1021A0004FF46053C4F202034FF46052C4F20202CF
:1021B000516C7A68D2430A405A640C37BD465DF8C8
:1021C000047B704780B483B000AF78600B46FB702F
:1021D000FB78002B0CD04FF46053C4F202034FF491
:1021E0006052C4F2020211697A680A431A610CE073
:1021F0004FF46053C4F202034FF46052C4F202027F
:1022000011697A68D2430A401A610C37BD465DF8FD
:10221000047B704780B483B000AF78600B46FB70DE
:10222000FB78002B0CD04FF46053C4F202034FF440
:102230006052C4F2020251697A680A435A610CE0A2
:102240004FF46053C4F202034FF46052C4F202022E
:1022500051697A68D2430A405A610C37BD465DF82D
:10226000047B704780B483B000AF78600B46FB708E
:10227000FB78002B0CD04FF46053C4F202034FF4F0
:102280006052C4F2020291697A680A439A610CE0D2
:102290004FF46053C4F202034FF46052C4F20202DE
:1022A00091697A68D2430A409A610C37BD465DF85D
:1022B000047B704780B483B000AF78600B46FB703E
:1022C000FB78002B0CD04FF46053C4F202034FF4A0
:1022D0006052C4F20202116A7A680A431A620CE080
:1022E0004FF46053C4F202034FF46052C4F202028E
:1022F000116A7A68D2430A401A620C37BD465DF80B
:10230000047B704780B483B000AF78600B46FB70ED
:10231000FB78002B0CD04FF46053C4F202034FF44F
:102320006052C4F20202516A7A680A435A620CE0AF
:102330004FF46053C4F202034FF46052C4F202023D
:10234000516A7A68D2430A405A620C37BD465DF83A
:10235000047B704780B483B000AF78600B46FB709D
:10236000FB78002B0CD04FF46053C4F202034FF4FF
:102370006052C4F20202116D7A680A431A650CE0D9
:102380004FF46053C4F202034FF46052C4F20202ED
:10239000116D7A68D2430A401A650C37BD465DF864
:1023A000047B704780B483B000AF78600B46FB704D
:1023B000FB78002B0CD04FF46053C4F202034FF4AF
:1023C0006052C4F20202516D7A680A435A650CE009
:1023D0004FF46053C4F202034FF46052C4F202029D
:1023E000516D7A68D2430A405A650C37BD465DF894
:1023F000047B704780B483B000AF78600B46FB70FD
:10240000FB78002B0CD04FF46053C4F202034FF45E
:102410006052C4F20202916D7A680A439A650CE038
:102420004FF46053C4F202034FF46052C4F202024C
:10243000916D7A68D2430A409A650C37BD465DF8C3
:10244000047B704780B483B000AF78600B46FB70AC
:10245000FB78002B0CD04FF46053C4F202034FF40E
:102460006052C4F20202116E7A680A431A660CE0E6
:102470004FF46053C4F202034FF46052C4F20202FC
:10248000116E7A68D2430A401A660C37BD465DF871
:10249000047B704780B483B000AF78600B46FB705C
:1024A000FB78002B0CD04FF46053C4F202034FF4BE
:1024B0006052C4F20202516E7A680A435A660CE016
:1024C0004FF46053C4F202034FF46052C4F20202AC
:1024D000516E7A68D2430A405A660C37BD465DF8A1
:1024E000047B704780B483B000AF02460B46FA719C
:1024F000BB71BB79002B0ED043F60D03C4F202036F
:1025000043F60D02C4F202021278D1B2FA790A43FC
:10251000D2B21A700FE043F60D03C4F2020343F681
:102520000D02C4F202021278D1B2FA79D243D2B2C9
:102530000A40D2B21A700C37BD465DF8047B704772
:1025400080B487B000AF0346FB710023FB6000231B
:102550007B610023FB74FB795B09DBB2FB60FB68EA
:10256000012B06D14FF46053C4F202031B687B6158
:102570000FE0FB68022B06D14FF46053C4F2020354
:102580001B6F7B6105E04FF46053C4F202035B6F85
:102590007B61FB7903F01F03FB60FB687A6922FA19
:1025A00003F303F00103002B02D00123FB7401E0CD
:1025B0000023FB74FB7C18461C37BD465DF8047B8A
:1025C000704700BF80B400AF4FF46053C4F2020301
:1025D0004FF46052C4F20202526F42F080725A67A6
:1025E000BD465DF8047B704780B485B000AF0346FC
:1025F000FB710023FB734FF46053C4F20203DA68EB
:10260000FB791340002B02D00123FB7301E0002370
:10261000FB73FB7B18461437BD465DF8047B70479F
:1026200080B483B000AF0346FB7143F60E03C4F2DF
:102630000203FA791A700C37BD465DF8047B7047C7
:1026400080B400AF4FF47053C4F2010300221A604B
:102650004FF47053C4F2010300225A604FF47053D8
:10266000C4F2010300229A604FF47053C4F20103D4
:102670000022DA604FF47053C4F201034FF6FF7288
:10268000C0F27F025A61BD465DF8047B704700BF0F
:1026900080B485B000AF78600023FB604FF47053C6
:1026A000C4F20103FB607B689B79002B74D04FF46C
:1026B0007053C4F201034FF47052C4F20102116866
:1026C0007A681268D2430A401A604FF47053C4F219
:1026D00001034FF47052C4F2010251687A68126823
:1026E000D2430A405A607B681B79FA681344FB6046
:1026F000FB68FA6811687A6812680A431A604FF436
:102700007053C4F201034FF47052C4F20102916895
:102710007A681268D2430A409A604FF47053C4F248
:1027200001034FF47052C4F20102D1687A68126852
:10273000D2430A40DA607B685B79102B1AD14FF4E0
:102740007053C4F201034FF47052C4F20102916855
:102750007A6812680A439A604FF47053C4F2010316
:102760004FF47052C4F20102D1687A6812680A43C9
:10277000DA601EE04FF47053C4F20103FB607B6823
:102780005B79FA681344FB60FB68FA6811687A6841
:1027900012680A431A600CE07B681B79FA681344DC
:1027A000FB60FB68FA6811687A681268D2430A40D5
:1027B0001A601437BD465DF8047B704780B483B05F
:1027C00000AF78607B6800221A607B6800221A7173
:1027D0007B680C225A717B6800229A710C37BD46C7
:1027E0005DF8047B704700BF80B483B000AF7860B1
:1027F0004FF47053C4F201034FF47052C4F201025B
:1028000011697A680A431A610C37BD465DF8047B8A
:10281000704700BF80B485B000AF78600023FB73C1
:102820004FF47053C4F201035A697B681340002BC4
:1028300002D00123FB7301E00023FB73FB7B1846EE
:102840001437BD465DF8047B704700BF80B483B089
:1028500000AF78604FF47053C4F201037A685A6194
:102860000C37BD465DF8047B704700BF80B485B06F
:1028700000AF78600023FB734FF47053C4F2010380
:102880005A697B681340002B02D00123FB7301E0DF
:102890000023FB73FB7B18461437BD465DF8047BB1
:1028A000704700BF80B483B000AF78604FF47053BE
:1028B000C4F201037A685A610C37BD465DF8047BA7
:1028C000704700BF80B582B000AF78607A684FF47F
:1028D000A843C4F200039A420AD14FF40010012128
:1028E000FFF7E8FC4FF400100021FFF7E3FC22E0C3
:1028F0007A684FF4B043C4F200039A420AD14FF40D
:1029000080000121FFF7D6FC4FF480000021FFF783
:10291000D1FC10E07A684FF4B843C4F200039A4245
:1029200009D14FF400000121FFF7C4FC4FF400006F
:102930000021FFF7BFFC0837BD4680BD80B58AB0D7
:1029400000AF786039600023FB8400237B8404237C
:10295000BB844FF49053C0F27A03FB617B689B8881
:10296000FB84FB8C23F03F03FB8407F10C03184628
:10297000FFF768F97B69FB61FA694DF68363C4F27E
:102980001B33A3FB02139B0C7B84FA8C7B8C1343BD
:10299000FB847B68FA8C9A807B681B889BB223F04F
:1029A00001039AB27B681A800023FB843B681A6893
:1029B00048F2A063C0F201039A4215D83B681B6835
:1029C0005B00FA69B2FBF3F3BB84BB8C032B01D829
:1029D0000423BB84FA8CBB8C1343FB847B8C0133B4
:1029E0009AB27B681A8443E03B68DA884BF6FF733F
:1029F0009A4209D13B681A6813465B001344FA698E
:102A0000B2FBF3F3BB840EE03B681A6813469B00ED
:102A100013449A001344FA69B2FBF3F3BB84BB8CF2
:102A200043F48043BB84BB8CC3F30B03002B03D163
:102A3000BB8C43F00103BB84BA8CFB8C13439BB269
:102A40006FEA43436FEA5343FB847B8C4FF49672E7
:102A500002FB03F244F6D353C1F2620383FB021379
:102A60009911D317CB1A9BB201339AB27B681A849F
:102A70007B68FA8C9A837B681B889BB243F00103C6
:102A80009AB27B681A807B681B88FB84FB8C23F4DA
:102A9000816323F00203FB843B689A883B685B896F
:102AA00013439AB2FB8C1343FB847B68FA8C1A8025
:102AB0003B689A893B681B8913439AB27B681A81E9
:102AC0002837BD4680BD00BF80B483B000AF7860BA
:102AD0007B6841F288321A607B6800229A807B68AA
:102AE0004BF6FF72DA807B6800221A817B68002235
:102AF0005A817B684FF480429A810C37BD465DF85D
:102B0000047B704780B483B000AF78600B46FB70E5
:102B1000FB78002B08D07B681B889BB243F0010335
:102B20009AB27B681A8007E07B681B889BB223F00F
:102B300001039AB27B681A800C37BD465DF8047BAE
:102B4000704700BF80B483B000AF78600B46FB7065
:102B5000FB78002B08D07B689B8C9BB223F0100382
:102B60009AB27B689A8407E07B689B8C9BB243F0A7
:102B700010039AB27B689A840C37BD465DF8047BDB
:102B8000704700BF80B485B000AF78600B467B8093
:102B90000023FB817B689B8CFB81FB8923F00F0367
:102BA000FB817B8803F00F039AB2FB8913439BB22E
:102BB000FB817B68FA899A841437BD465DF8047BF3
:102BC000704700BF80B483B000AF78600B46FB70E5
:102BD000FB78002B08D07B681B889BB243F4807382
:102BE0009AB27B681A8007E07B681B889BB223F44B
:102BF00080739AB27B681A800C37BD465DF8047BFF
:102C0000704700BF80B483B000AF78600B46FB70A4
:102C1000FB78002B08D07B681B889BB243F40073C1
:102C20009AB27B681A8007E07B681B889BB223F40A
:102C300000739AB27B681A800C37BD465DF8047B3E
:102C4000704700BF80B483B000AF786013460A4677
:102C5000FA70BB70BB78002B04D0FB7843F0010303
:102C6000FB7003E0FB7823F00103FB70FB789AB262
:102C70007B681A820C37BD465DF8047B704700BF45
:102C800080B483B000AF78600B46FB70FB78002BFC
:102C900008D07B681B889BB243F480639AB27B6840
:102CA0001A8007E07B681B889BB223F480639AB28A
:102CB0007B681A800C37BD465DF8047B704700BF07
:102CC00080B485B000AF78600B46FB700023FB81B9
:102CD0007B689B89FB81FB8923F0FE03FB81FB78EA
:102CE0009BB203F0FE039AB2FB8913439BB2FB81B4
:102CF0007B68FA899A811437BD465DF8047B70477A
:102D000080B483B000AF78600B46FB70FB78002B7B
:102D100008D07B689B899BB243F001039AB27B6821
:102D20009A8107E07B689B899BB223F001039AB2EA
:102D30007B689A810C37BD465DF8047B704700BF05
:102D400080B483B000AF78600B46FB70FB78002B3B
:102D500008D07B681B889BB243F040039AB27B6823
:102D60001A8007E07B681B889BB223F040039AB26D
:102D70007B681A800C37BD465DF8047B704700BF46
:102D800080B483B000AF78600B46FB70FB78002BFB
:102D90000AD07B681B889BB26FEA43436FEA5343B8
:102DA0009AB27B681A8007E07B681B889BB2C3F3EA
:102DB0000E039AB27B681A800C37BD465DF8047B1F
:102DC000704700BF80B483B000AF78600B46FB70E3
:102DD000FB78002B08D17B681B889BB243F08003F3
:102DE0009AB27B681A8007E07B681B889BB223F04D
:102DF00080039AB27B681A800C37BD465DF8047B6D
:102E0000704700BF80B483B000AF78600B467B8012
:102E10007B88B3F5804F08D07B689B8B9BB223F4F3
:102E200080439AB27B689A8307E07B689B8B9BB256
:102E300043F480439AB27B689A830C37BD465DF8B1
:102E4000047B704780B483B000AF78600B467B8012
:102E50007B88B3F5006F08D17B681B889BB243F475
:102E600000639AB27B681A8007E07B681B889BB27C
:102E700023F400639AB27B681A800C37BD465DF874
:102E8000047B704780B483B000AF78600B467B80D2
:102E90007B88B3F5005F08D17B681B889BB243F445
:102EA00000539AB27B681A8007E07B681B889BB24C
:102EB00023F400539AB27B681A800C37BD465DF844
:102EC000047B704780B483B000AF78600B46FB7022
:102ED000FB78002B08D07B681B889BB243F0100363
:102EE0009AB27B681A8007E07B681B889BB223F04C
:102EF00010039AB27B681A800C37BD465DF8047BDC
:102F0000704700BF80B483B000AF78600B46FB70A1
:102F1000FB789AB27B681A820C37BD465DF8047B59
:102F2000704700BF80B483B000AF78607B681B8AB5
:102F30009BB2DBB218460C37BD465DF8047B704788
:102F400080B483B000AF78600B46FB70FB78002B39
:102F500008D07B681B889BB243F480539AB27B688D
:102F60001A8007E07B681B889BB223F480539AB2D7
:102F70007B681A800C37BD465DF8047B704700BF44
:102F800080B483B000AF78600B467B807B88B3F55C
:102F9000006F08D17B681B889BB243F400639AB230
:102FA0007B681A8007E07B681B889BB223F4006370
:102FB0009AB27B681A800C37BD465DF8047B704777
:102FC00080B483B000AF78600B46FB70FB78002BB9
:102FD00008D07B681B889BB243F020039AB27B68C1
:102FE0001A8007E07B681B889BB223F020039AB20B
:102FF0007B681A800C37BD465DF8047B704700BFC4
:1030000080B483B000AF78607B681B8B9BB21B0AD7
:103010009BB2DBB218460C37BD465DF8047B7047A7
:1030200080B483B000AF78600B46FB70FB78002B58
:1030300008D07B689B889BB243F400639AB27B689C
:103040009A8007E07B689B889BB223F400639AB266
:103050007B689A800C37BD465DF8047B704700BFE3
:1030600080B483B000AF78600B46FB70FB78002B18
:1030700008D07B689B889BB243F480539AB27B68EC
:103080009A8007E07B689B889BB223F480539AB2B6
:103090007B689A800C37BD465DF8047B704700BFA3
:1030A00080B485B000AF78600B46FB700023FB60F6
:1030B0007B68FB60FA78FB681344FB60FB681B8845
:1030C0009BB218461437BD465DF8047B704700BFBD
:1030D00080B483B000AF786013460A467A807B7074
:1030E0007B78002B08D07B689B889AB27B8813433F
:1030F0009AB27B689A8009E07B689B889AB27B8849
:10310000DB439BB213409AB27B689A800C37BD4672
:103110005DF8047B704700BF80B487B000AF786073
:10312000396000233B610023FB600023BB60002368
:10313000FB757B689B8A9BB2FB607B681B8B9BB299
:10314000BB60BB681B04BB60FA68BB68134323F019
:103150007F433B613A693B681A403B689A4202D11F
:103160000123FB7501E00023FB75FB7D18461C372E
:10317000BD465DF8047B704780B487B000AF7860CF
:1031800000237B6100233B610023FB607B689B8AFB
:103190009BB23B617B681B8B9BB2FB60FB681B0493
:1031A000FB603A69FB68134323F07F437B617B69D3
:1031B00018461C37BD465DF8047B704780B487B065
:1031C00000AF786039600023FB7500233B6100236A
:1031D000FB607B68FB603B681B0F3B613B6823F037
:1031E0007F433B603B69002B03D0FB681433FB60DB
:1031F00005E03B681B0C3B60FB681833FB60FB6819
:103200001A683B681340002B02D00123FB7501E0D4
:103210000023FB75FB7D18461C37BD465DF8047B1B
:10322000704700BF80B485B000AF7860396000237C
:10323000FB603B6823F07F43FB60FB689BB2DB4392
:103240009AB27B689A821437BD465DF8047B70475A
:1032500080B485B000AF786039600023FB73002331
:10326000BB603B6803F0E0631A0C7B689B889BB2F1
:103270001340BB603B6823F07F433B607B689B8AC5
:103280009BB21A463B681340002B05D0BB68002B4D
:1032900002D00123FB7301E00023FB73FB7B184684
:1032A0001437BD465DF8047B704700BF80B485B01D
:1032B00000AF786039600023FB603B6823F07F43F8
:1032C000FB60FB689BB2DB439AB27B689A8214373F
:1032D000BD465DF8047B704780B483B000AF786072
:1032E0007B681B6823F001027B681A607B68002200
:1032F0001A607B6800225A607B6800229A607B68B3
:103300000022DA607B6800221A617B6821225A6100
:103310007A6846F21003C4F202039A4206D14FF4CF
:10332000C043C4F202033D229A60E6E07A6846F2A6
:103330002803C4F202039A4207D14FF4C043C4F2F7
:1033400002034FF474629A60D7E07A6846F2400351
:10335000C4F202039A4207D14FF4C043C4F20203FD
:103360004FF474129A60C8E07A6846F25803C4F2C7
:1033700002039A4207D14FF4C043C4F202034FF054
:1033800074629A60B9E07A6846F27003C4F202038C
:103390009A4208D14FF4C043C4F202033D22C2F264
:1033A0000002DA60A9E07A6846F28803C4F20203F8
:1033B0009A4209D14FF4C043C4F202034FF474623D
:1033C000C2F20002DA6098E07A6846F2A003C4F222
:1033D00002039A4208D14FF4C043C4F20203002210
:1033E000C2F23D02DA6088E07A6846F2B803C4F2BD
:1033F00002039A4207D14FF4C043C4F202034FF0D4
:103400003D52DA6079E07A6846F21043C4F2020372
:103410009A4206D14FF4C843C4F202033D229A6097
:103420006BE07A6846F22843C4F202039A4207D15D
:103430004FF4C843C4F202034FF474629A605CE034
:103440007A6846F24043C4F202039A4207D14FF42D
:10345000C843C4F202034FF474129A604DE07A68D4
:1034600046F25843C4F202039A4207D14FF4C843CC
:10347000C4F202034FF074629A603EE07A6846F24A
:103480007043C4F202039A4208D14FF4C843C4F215
:1034900002033D22C2F20002DA602EE07A6846F2B0
:1034A0008843C4F202039A4209D14FF4C843C4F2DC
:1034B00002034FF47462C2F20002DA601DE07A681F
:1034C00046F2A043C4F202039A4208D14FF4C84323
:1034D000C4F202030022C2F23D02DA600DE07A6813
:1034E00046F2B843C4F202039A4206D14FF4C843ED
:1034F000C4F202034FF03D52DA600C37BD465DF86E
:10350000047B704780B485B000AF786039600023D9
:10351000FB607B681B68FB60FA6848F23F03CFF2F0
:103520001C031340FB603B681A683B68DB681A4366
:103530003B685B691A433B689B691A433B68DB69DC
:103540001A433B681B6A1A433B685B6A1A433B6831
:103550009B6A1A433B685B6B1A433B689B6B134344
:10356000FA681343FB607B68FA681A607B685B69E2
:10357000FB60FB6823F00703FB603B68DA6A3B688B
:103580001B6B1343FA681343FB607B68FA685A614C
:103590003B681A697B685A603B685A687B689A6026
:1035A0003B689A687B68DA601437BD465DF8047B37
:1035B000704700BF80B483B000AF78607B680022A2
:1035C0001A607B6800225A607B6800229A607B68E0
:1035D0000022DA607B6800221A617B6800225A614F
:1035E0007B6800229A617B680022DA617B68002296
:1035F0001A627B6800225A627B6800229A627B68AA
:103600000022DA627B6800221A637B6800225A6318
:103610007B6800229A630C37BD465DF8047B7047D7
:1036200080B483B000AF78600B46FB70FB78002B52
:1036300006D07B681B6843F001027B681A6005E0D6
:103640007B681B6823F001027B681A600C37BD465B
:103650005DF8047B704700BF80B483B000AF786032
:1036600039603B68002B06D07B681B6843F400423E
:103670007B681A6005E07B681B6823F400427B6866
:103680001A600C37BD465DF8047B704780B483B088
:1036900000AF786039603B68002B06D07B681B6800
:1036A00043F020027B681A6005E07B681B6823F00A
:1036B00020027B681A600C37BD465DF8047B7047BA
:1036C00080B483B000AF78600B467B807A887B68DB
:1036D0005A600C37BD465DF8047B704780B483B0F8
:1036E00000AF78607B685B689BB218460C37BD46BC
:1036F0005DF8047B704700BF80B485B000AFF86010
:10370000B9607A607B68002B06D0FB681B6843F4C5
:103710000022FB681A6005E0FB681B6823F40022A6
:10372000FB681A60FB68BA681A611437BD465DF819
:10373000047B704780B483B000AF78600B46FB70A9
:10374000FB78002B06D07B681B6843F480227B68E3
:103750001A6005E07B681B6823F480227B681A608E
:103760000C37BD465DF8047B704700BF80B485B060
:1037700000AFF860B9607A607B68002B03D0FB680B
:10378000BA681A6102E0FB68BA68DA601437BD46AD
:103790005DF8047B704700BF80B485B000AF7860EF
:1037A0000023FB607B681B6803F40023002B02D01E
:1037B0000123FB6001E00023FB60FB68184614371F
:1037C000BD465DF8047B704780B485B000AF78607B
:1037D0000023FB737B681B6803F00103002B02D0FE
:1037E0000123FB7301E00023FB73FB7B18461437B6
:1037F000BD465DF8047B704780B485B000AF78604B
:103800000023FB607B685B6903F03803FB60FB68A7
:1038100018461437BD465DF8047B704780B487B006
:1038200000AF786039600023FB750023FB607A6885
:1038300046F20F43C4F202039A4205D84FF4C04344
:10384000C4F202033B6104E04FF4C843C4F2020334
:103850003B613B6803F00053002B03D03B695B687E
:10386000FB6002E03B691B68FB60FB6823F0F02310
:1038700023F08213FB60FA683B681340002B02D0F0
:103880000123FB7501E00023FB75FB7D18461C3707
:10389000BD465DF8047B704780B485B000AF7860AA
:1038A00039607A6846F20F43C4F202039A4205D89F
:1038B0004FF4C043C4F20203FB6004E04FF4C8437A
:1038C000C4F20203FB603B6803F00053002B07D0F7
:1038D0003B6823F0F02323F08213FA68D36006E0FC
:1038E0003B6823F0F02323F08213FA6893601437C7
:1038F000BD465DF8047B704780B485B000AFF860CA
:10390000B9601346FB71BB6803F08003002B0FD036
:10391000FB79002B06D0FB685B6943F08002FB68F3
:103920005A6105E0FB685B6923F08002FB685A611D
:10393000BB68802B14D0FB79002B08D0FB681A6879
:10394000BB6803F01E031A43FB681A6008E0FB68BB
:103950001A68BB6803F01E03DB431A40FB681A6059
:103960001437BD465DF8047B704700BF80B487B054
:1039700000AF786039600023FB750023FB600023F3
:10398000BB607A6846F20F43C4F202039A4205D83C
:103990004FF4C043C4F202033B6104E04FF4C84358
:1039A000C4F202033B613B6823F0F02323F0C3130E
:1039B000002B0AD03B68DB0A03F01E03FB607B6828
:1039C0001A68FB681340BB6004E07B685B6903F026
:1039D0008003BB603B6803F00053002B03D03B69BE
:1039E0005B68FB6002E03B691B68FB60FB6823F0DF
:1039F000F02323F08213FB60FA683B681340002B2E
:103A000005D0BB68002B02D00123FB7501E0002329
:103A1000FB75FB7D18461C37BD465DF8047B70477F
:103A200080B485B000AF786039607A6846F20F43A1
:103A3000C4F202039A4205D84FF4C043C4F2020311
:103A4000FB6004E04FF4C843C4F20203FB603B6830
:103A500003F00053002B07D03B6823F0F02323F042
:103A60008213FA68D36006E03B6823F0F02323F06A
:103A70008213FA6893601437BD465DF8047B704783
:103A800080B485B000AFF860B9607A60FB68043B31
:103A9000FB60FB684FF080721A60FB68043BFB60C0
:103AA000BB6823F00102FB681A60FB68043BFB6003
:103AB00043F6DD23C0F60003FA681360FB68143B8D
:103AC000FB607A68FB681A60FB68203BFB60FB6860
:103AD00018461437BD465DF8047B704780B483B048
:103AE00000AF40F23403C2F200031B68B3F1FF3FA2
:103AF00009D04FF0500383F31188BFF36F8FBFF3EA
:103B00004F8F7B60FEE74FF0500383F31188BFF3C4
:103B10006F8FBFF34F8F3B60FEE700BF084B196804
:103B20000868B0E8F00F80F30988BFF36F8F4FF09B
:103B3000000080F311884EF00D0E7047AFF3008047
:103B4000B8300120D1480068006880F3088862B668
:103B500061B6BFF34F8FBFF36F8F00DF00BF00BFB1
:103B600080B584B000AF4FF46443CEF20003FB6035
:103B7000FB681B78DBB2BB60FB68FF221A70FB6836
:103B80001B78DBB2FB71FB79DBB203F05003DAB2D6
:103B900040F29C43C2F200031A7040F2A043C2F20A
:103BA000000307221A600FE040F2A043C2F20003B4
:103BB0001B685A1E40F2A043C2F200031A60FB7950
:103BC000DBB25B00DBB2FB71FB79DBB2DBB25BB279
:103BD000002BE9DB40F2A043C2F200031B681A028B
:103BE00040F2A043C2F200031A6040F2A043C2F2C6
:103BF00000031B6803F4E06240F2A043C2F200033A
:103C00001A60BB68DAB2FB681A704EF62053CEF227
:103C100000034EF62052CEF20002126842F4700207
:103C20001A604EF62053CEF200034EF62052CEF22A
:103C30000002126842F070421A6000F0D3F840F2BD
:103C40003403C2F2000300221A60FFF77BFFFFF784
:103C500045FF002318461037BD4680BD80B483B0B1
:103C600000AF40F23403C2F200031B68B3F57A7F61
:103C700009D04FF0500383F31188BFF36F8FBFF368
:103C80004F8F7B60FEE70C37BD465DF8047B7047C5
:103C900080B483B000AF4FF0500383F31188BFF3BB
:103CA0006F8FBFF34F8F7B6040F23403C2F200038B
:103CB0001B685A1C40F23403C2F200031A6040F23F
:103CC0003403C2F200031B68012B11D14EF60453DA
:103CD000CEF200031B68DBB2002B09D04FF050037B
:103CE00083F31188BFF36F8FBFF34F8F3B60FEE705
:103CF0000C37BD465DF8047B704700BF80B483B0CD
:103D000000AF40F23403C2F200031B68002B09D15C
:103D10004FF0500383F31188BFF36F8FBFF34F8FC2
:103D20007B60FEE740F23403C2F200031B685A1EB8
:103D300040F23403C2F200031A6040F23403C2F2CC
:103D400000031B68002B04D100233B603B6883F316
:103D500011880C37BD465DF8047B7047EFF309808E
:103D6000BFF36F8F0E4B1A6820E9F00F10602DE93A
:103D700008404FF0500080F3118803F01FFC4FF013
:103D8000000080F31188BDE8084019680868B0E8B1
:103D9000F00F80F30988BFF36F8F7047AFF3008097
:103DA000B830012080B582B000AF4FF0500383F3EC
:103DB0001188BFF36F8FBFF34F8F7B6003F0DCFA86
:103DC0000346002B06D04EF60453CEF200034FF00C
:103DD00080521A6000233B603B6883F311880837E8
:103DE000BD4680BD80B400AF4EF21403CEF2000396
:103DF0004FF223421A604EF21003CEF20003072264
:103E00001A60BD465DF8047B704700BF80B485B082
:103E100000AFEFF30583FB60FB680F2B19D94EF25F
:103E2000F033CEF20003FA6813441B78FB7240F2C1
:103E30009C43C2F200031B78FA7A9A4209D24FF0EF
:103E4000500383F31188BFF36F8FBFF34F8F7B60F5
:103E5000FEE74EF60C53CEF200031B6803F4E0625B
:103E600040F2A043C2F200031B689A4209D94FF006
:103E7000500383F31188BFF36F8FBFF34F8F3B6005
:103E8000FEE71437BD465DF8047B704708ED00E09F
:103E900080B588B000AF786000237B6103F0B0F894
:103EA00043F2B403C2F201031B68002B07D100F0F8
:103EB000F5F843F2B403C2F2010301221A607B68F1
:103EC000002B0DD008237A6813447B607B6803F0D5
:103ED0000703002B04D07B6823F0070308337B60C3
:103EE0007B68002B6BD07A6842F6F733C0F201038F
:103EF0009A4264D843F2A403C2F20103BB6143F2C5
:103F0000A403C2F201031B68FB6104E0FB69BB610F
:103F1000FB691B68FB61FB695A687B689A4203D2A4
:103F2000FB691B68002BF1D1FA6943F2AC03C2F2C2
:103F300001039A4243D0BB691A68082313447B618A
:103F4000FB691A68BB691A60FB695A687B68D21AF8
:103F500008235B009A4225D9FA697B681344FB6009
:103F6000FB695A687B68D21AFB685A60FB697A68F9
:103F70005A60FB685B68BB6043F2A403C2F20103B2
:103F80003B6102E03B691B683B613B691B685A6807
:103F9000BB689A42F6D33B691A68FB681A603B69B2
:103FA000FA681A6040F23803C2F200031A68FB692B
:103FB0005B68D21A40F23803C2F200031A607B69D0
:103FC000002B06D07A697B68942011461A4606F0C9
:103FD0004BFE03F027F87B69002B01D1FCF7F0FAC8
:103FE0007B6918462037BD4680BD00BF80B586B0CE
:103FF00000AF78607B683B617B68002B39D0082379
:104000005B423A6913443B613B69FB6002F0F8FF95
:10401000FB685B68BB6043F2A403C2F201037B61EF
:1040200002E07B691B687B617B691B685A68BB681F
:104030009A42F6D37B691A68FB681A607B69FA6852
:104040001A60FB685A6840F23803C2F200031B682A
:104050001A4440F23803C2F200031A607A68FB681F
:104060005B685B42962011461A4606F0FDFD02F0A1
:10407000D9FF1837BD4680BD80B400AF40F2380389
:10408000C2F200031B681846BD465DF8047B70470A
:1040900080B400AFBD465DF8047B704780B483B048
:1040A00000AF194B23F007037B6043F2A403C2F275
:1040B00001037A681A6043F2A403C2F201030022EA
:1040C0005A6043F2AC03C2F2010342F6F832C0F286
:1040D00001025A6043F2AC03C2F2010300221A60EB
:1040E0007B683B603A6842F6F833C0F201035360E4
:1040F0003A6843F2AC03C2F2010313600C37BD46C9
:104100005DF8047B704700BFAC04002080B582B02E
:1041100000AF1C20FFF7BCFE78607B68002B19D035
:104120007B6800221A607B680433184600F086FB27
:10413000062007F07DFD03461A467B689A61786881
:1041400000F066FB0346DBB2C22006211A4606F0E9
:1041500039FE04E0C3200621002206F033FE7B680E
:1041600018460837BD4680BD80B58CB000AFF860FA
:10417000B9607A603B60FB687B620023BB627B684E
:1041800003F07F43002B09D04FF0500383F31188D5
:10419000BFF36F8FBFF34F8FBB61FEE77B68002BD0
:1041A00009D14FF0500383F31188BFF36F8FBFF332
:1041B0004F8F7B61FEE703F0B3FE0346002B02D175
:1041C0003B68002B01D1012300E00023002B09D123
:1041D0004FF0500383F31188BFF36F8FBFF34F8FFE
:1041E0003B61FEE702F00CFF7B6A1B683B62F868EC
:1041F000B96800F0EBF93A6ABB681A437B681A4069
:104200007B689A420DD13A6ABB681343FB627B6AB2
:104210001A687B68DB431A407B6A1A6000233B60A4
:104220001DE03B68002B17D0F86800F0F1FA034658
:10423000DBB2C42006211A467B6806F07DFE7B6A4D
:104240001A1D7B6843F0A063104619463A6803F0D4
:1042500075FA0023FB6202E07B6A1B68FB6202F0D6
:10426000E1FEF8613B68002B2FD0FB69002B0AD1DF
:104270004EF60453CEF200034FF080521A60BFF3A3
:104280004F8FBFF36F8F03F0E3FFF862FB6A03F019
:104290000073002B15D1FFF7FBFC7B6A1B68FB62E8
:1042A000FA6A7B681A407B689A4206D17B6A1A6870
:1042B0007B68DB431A407B6A1A60FFF71FFD01230E
:1042C000BB62FB6A23F07F43FB62BB6A002B0BD00F
:1042D000F86800F09DFA0346DBB2CC2006211A46AE
:1042E0007B6806F029FE0AE0F86800F091FA0346C0
:1042F000DBB2C52006211A467B6806F01DFEFB6A6C
:1043000018463037BD4680BD80B590B000AFF8602C
:10431000B9607A603B60FB683B630023BB630023AA
:104320007B63FB68002B09D14FF0500383F31188A6
:10433000BFF36F8FBFF34F8F3B62FEE7BB6803F0A5
:104340007F43002B09D04FF0500383F31188BFF354
:104350006F8FBFF34F8FFB61FEE7BB68002B09D166
:104360004FF0500383F31188BFF36F8FBFF34F8F6C
:10437000BB61FEE703F0D4FD0346002B02D1BB6C0A
:10438000002B01D1012300E00023002B09D14FF0C5
:10439000500383F31188BFF36F8FBFF34F8F7B619F
:1043A000FEE702F02DFE3B6B1B68FB62F86AB96802
:1043B0003A6800F00BFAB862BB6A002B0ED0FB6AB9
:1043C000FB630023BB647B68002B3CD03B6B1A680B
:1043D000BB68DB431A403B6B1A6034E0BB6C002BBC
:1043E00002D1FB6AFB632EE07B68002B03D0BB6B22
:1043F00043F08073BB633B68002B03D0BB6B43F07F
:104400008063BB633B6B1A1DB968BB6B0B431046E3
:104410001946BA6C03F092F90023FB63F86800F0C8
:10442000F7F90346DBB2C62006211A46BB6806F040
:1044300083FD05F09FF80346184605F0BDF80346D6
:10444000184607F0B5F902F0EDFD7862BB6C002B61
:1044500034D07B6A002B0AD14EF60453CEF200030F
:104460004FF080521A60BFF34F8FBFF36F8F03F08E
:10447000EFFEF863FB6B03F00073002B1AD1FFF71C
:1044800007FC3B6B1B68FB63F86BB9683A6800F08C
:104490009DF90346002B09D07B68002B06D03B6BAF
:1044A0001A68BB68DB431A403B6B1A60FFF726FCB7
:1044B00000237B63FB6B23F07F43FB637B6B002B51
:1044C0000BD0F86800F0A4F90346DBB2CD2006213A
:1044D0001A46BB6806F030FD0AE0F86800F098F96B
:1044E0000346DBB2C72006211A46BB6806F024FD4E
:1044F000FB6B18464037BD4680BD00BF80B586B017
:1045000000AF786039607B687B617B68002B09D1E4
:104510004FF0500383F31188BFF36F8FBFF34F8FBA
:10452000FB60FEE73B6803F07F43002B09D04FF0B0
:10453000500383F31188BFF36F8FBFF34F8FBB60BE
:10454000FEE7FFF7A5FB3B68002B0AD0786800F078
:104550005FF90346DBB2C82006211A463B6806F025
:10456000EBFC7B691B683B617B691A683B68DB433A
:104570001A407B691A60FFF7C1FB3B691846183780
:10458000BD4680BD80B489B000AF78607B68FB61B8
:10459000EFF311824FF0500383F31188BFF36F8F55
:1045A000BFF34F8F3A61FB603B69BB61FB691B68DE
:1045B0007B61BB69BB60BB6883F311887B6918466C
:1045C0002437BD465DF8047B704700BF80B58EB0D0
:1045D00000AF7860396000233B637B68BB620023D7
:1045E000FB627B68002B09D14FF0500383F31188E5
:1045F000BFF36F8FBFF34F8F3B61FEE73B6803F064
:104600007F43002B09D04FF0500383F31188BFF391
:104610006F8FBFF34F8FFB60FEE7BB6A04337B6293
:104620007B6A08333B6202F0EBFC786800F0F0F83C
:104630000346DBB2CA2006211A463B6806F07CFC22
:104640007B6ADB687B63BB6A1A683B681A43BB6A98
:104650001A603CE07B6B5B68FB617B6B1B68BB613A
:104660000023FB62BB6903F07F437B61BB6923F0DE
:104670007F43BB617B6903F08063002B08D1BB6A79
:104680001A68BB691340002B0BD00123FB6208E0C2
:10469000BB6A1A68BB691A40BB699A4201D10123FF
:1046A000FB62FB6A002B10D07B6903F08073002B48
:1046B00003D03A6BBB6913433B63BB6A1B6843F08F
:1046C0000073786B194603F035F9FB697B637A6BED
:1046D0003B6A9A42BED1BB6A1A683B6BDB431A4005
:1046E000BB6A1A6002F09EFCBB6A1B68184638372A
:1046F000BD4680BD80B586B000AF78607B687B61C9
:104700007B6904333B6102F07BFC786800F080F841
:104710000346DBB2CB2006211A4606F053FB78682D
:1047200000F076F80346DBB21846062106F058FE84
:10473000786800F06DF80346DBB21846062106F0F3
:10474000A9FE786800F064F80346DBB2062019463B
:1047500007F0E8FB16E03B69DA683B6908339A42E8
:1047600009D14FF0500383F31188BFF36F8FBFF36C
:104770004F8FFB60FEE73B69DB6818464FF0007126
:1047800003F0D8F83B691B68002BE4D17869FFF788
:104790002DFC02F047FC1837BD4680BD80B582B0C5
:1047A00000AF7860396078683968FFF70FFF083725
:1047B000BD4680BD80B582B000AF78603960786852
:1047C0003968FFF79BFE0837BD4680BD80B487B0CF
:1047D00000AFF860B9607A6000237B617B68002BD2
:1047E00007D1FA68BB681340002B0AD001237B6114
:1047F00007E0FA68BB681A40BB689A4201D10123FE
:104800007B617B6918461C37BD465DF8047B7047A9
:1048100080B485B000AF78607B68BB607B68002B9C
:1048200002D10023FB6002E0BB689B69FB60FB6870
:1048300018461437BD465DF8047B704780B483B0DA
:1048400000AF78607B6803F108027B685A607B6880
:104850004FF0FF329A607B6803F108027B68DA60F0
:104860007B6803F108027B681A617B6800221A608A
:104870000C37BD465DF8047B704700BF80B483B041
:1048800000AF78607B6800221A610C37BD465DF886
:10489000047B704780B485B000AF786039607B6876
:1048A0005B68FB603B68FA685A60FB689A683B6823
:1048B0009A60FB689B683A685A60FB683A689A603D
:1048C0003B687A681A617B681B685A1C7B681A60AF
:1048D0001437BD465DF8047B704700BF80B485B0D7
:1048E00000AF786039603B681B68BB60BB68B3F1A0
:1048F000FF3F03D17B681B69FB600CE07B680833DA
:10490000FB6002E0FB685B68FB60FB685B681A6841
:10491000BB689A42F6D9FB685A683B685A603B68A4
:104920005B683A689A603B68FA689A60FB683A6824
:104930005A603B687A681A617B681B685A1C7B68FE
:104940001A601437BD465DF8047B704780B485B0AB
:1049500000AF78607B681B69FB607B685B687A6886
:1049600092689A607B689B687A6852685A60FB68B4
:104970005A687B689A4203D17B689A68FB685A60E0
:104980007B6800221A61FB681B685A1EFB681A606C
:10499000FB681B6818461437BD465DF8047B7047FA
:1049A00080B584B000AF786039607B68FB60FB68DD
:1049B000002B09D14FF0500383F31188BFF36F8FA1
:1049C000BFF34F8FBB60FEE7FFF762F9FB681A6821
:1049D000FB68DB6BF968096C01FB03F31A44FB68A5
:1049E0005A60FB6800229A63FB681A68FB689A6049
:1049F000FB681A68FB68DB6B013BF968096C01FB1B
:104A000003F31A44FB68DA60FB68FF2283F8442052
:104A1000FB68FF2283F845203B68002B17D1FB6819
:104A20001B69002B1DD0FB681033184602F010FFE5
:104A30000346002B15D04EF60453CEF200034FF080
:104A400080521A60BFF34F8FBFF36F8F09E0FB688E
:104A500010331846FFF7F2FEFB6824331846FFF7C1
:104A6000EDFEFFF74BF9012318461037BD4680BD18
:104A700080B58AB002AFF860B9601346FB71FB687D
:104A8000002B09D14FF0500383F31188BFF36F8FD0
:104A9000BFF34F8F3B61FEE7BB68002B02D10023C1
:104AA000FB6104E0FB68BA6802FB03F3FB61FB698E
:104AB00050331846FFF7ECF9B861BB69002B0AD0F8
:104AC000BB6950337B61FB79BA690092F868B968B9
:104AD0007A6900F005F8BB6918462037BD4680BDED
:104AE000B0B584B000AFF860B9607A60FB70BB68A5
:104AF000002B03D13B6A3A6A1A6002E03B6A7A688B
:104B00001A603B6AFA68DA633B6ABA681A64386A00
:104B10000121FFF745FF3B6AFA7883F84C20386A99
:104B200004F03EFD03461A4640F23C03C2F2000385
:104B30009B5C184607F07CF803461A463B6A9A6469
:104B4000386A04F02DFD03461A4640F23C03C2F2D7
:104B500000039C5C386A04F015FD034620461946A4
:104B600007F044FA386A04F01BFD03461A4640F287
:104B70003C03C2F200039B5C1833DBB21D46386A6B
:104B800004F00EFD03461A4640F23C03C2F2000355
:104B90009C5C386A04F0F6FC0346284621461A4617
:104BA00006F010F9386A04F0FBFC03461A4640F29E
:104BB0003C03C2F200039C5C386A04F0E3FC034649
:104BC00020461946002206F06BFD1037BD46B0BDE9
:104BD00080B582B000AF78607B68002B0ED07B6818
:104BE00000225A607B6800221A607B680022DA602B
:104BF000786800210022002300F0DAF80837BD466B
:104C000080BD00BF80B586B000AF0346FB710123B5
:104C10007B6100233B61FB79786939691A46FFF7AC
:104C200027FFF860F868FFF7D3FFFB6818461837CE
:104C3000BD4680BDB0B586B000AF78607B683B6193
:104C40003B69002B09D14FF0500383F31188BFF368
:104C50006F8FBFF34F8FFB60FEE73B695C6803F02B
:104C60004FF903469C4211D13B69DB685A1E3B69F0
:104C7000DA603B69DB68002B05D13869002100222E
:104C8000002300F095F801237B6121E000237B6184
:104C9000386904F085FC03461A4640F23C03C2F230
:104CA00000039B5C4833DBB21D46386904F078FC96
:104CB00003461A4640F23C03C2F200039C5C38698A
:104CC00004F060FC0346284621461A4606F07AF8AE
:104CD0007B6918461837BD46B0BD00BF90B587B098
:104CE00000AF786039607B683B613B69002B09D17C
:104CF0004FF0500383F31188BFF36F8FBFF34F8FD3
:104D0000FB60FEE73B695C6803F0FAF803469C42EF
:104D100007D13B69DB685A1C3B69DA6001237B6180
:104D20000EE0386900213A68002300F0BDFB78618D
:104D30007B69002B04D03B69DB685A1C3B69DA6055
:104D40007B6918461C37BD4690BD00BF80B586B054
:104D500000AF786039607B68002B09D14FF05003B9
:104D600083F31188BFF36F8FBFF34F8F3B61FEE773
:104D70003A687B689A4209D94FF0500383F311884F
:104D8000BFF36F8FBFF34F8FFB60FEE778680021A2
:104D90000222FFF76DFE78617B69002B02D07B69F0
:104DA0003A689A637B6918461837BD4680BD00BFD4
:104DB000B0B58EB000AFF860B9607A603B60002398
:104DC0007B63FB683B633B6B002B09D14FF05003C7
:104DD00083F31188BFF36F8FBFF34F8FBB62FEE782
:104DE000BB68002B03D13B6B1B6C002B01D1012353
:104DF00000E00023002B09D14FF0500383F311880A
:104E0000BFF36F8FBFF34F8F7B62FEE73B68022BD0
:104E100003D13B6BDB6B012B01D1012300E00023AD
:104E2000002B09D14FF0500383F31188BFF36F8F2C
:104E3000BFF34F8F3B62FEE703F072F80346002B8F
:104E400002D17B68002B01D1012300E00023002B5D
:104E500009D14FF0500383F31188BFF36F8FBFF375
:104E60004F8FFB61FEE7FEF713FF3B6B9A6B3B6BCB
:104E7000DB6B9A4202D33B68022B76D1386B04F08D
:104E80008FFB03461A4640F23C03C2F200039B5CD0
:104E90002033DBB21D46386B04F082FB03461A4612
:104EA00040F23C03C2F200039C5C386B04F06AFBE6
:104EB0000346284621461A4605F084FF386B04F065
:104EC0006FFB03461A4640F23C03C2F200039D5CAE
:104ED000386B04F057FB03461C46386B04F060FB4C
:104EE00003461A4640F23C03C2F200039B5C022BCD
:104EF00005D03B6B9B6BDBB20133DBB200E00023E0
:104F0000284621461A4606F0CBFB386BB9683A684A
:104F100000F00EFFF8623B6B5B6A002B13D03B6B1B
:104F20002433184602F094FC0346002B19D04EF6A9
:104F30000453CEF200034FF080521A60BFF34F8F3C
:104F4000BFF36F8F0DE0FB6A002B0AD04EF60453BF
:104F5000CEF200034FF080521A60BFF34F8FBFF3C1
:104F60006F8FFEF7CBFE0123CAE07B68002B23D1B5
:104F7000FEF7C4FE386B04F013FB03461A4640F2FA
:104F80003C03C2F200039B5C4833DBB21D46386B26
:104F900004F006FB03461A4640F23C03C2F200034B
:104FA0009C5C386B04F0EEFA0346284621461A460C
:104FB00005F008FF0023A3E07B6B002B06D107F16F
:104FC0001403184602F02AFD01237B63FEF796FEC8
:104FD00002F016F8FEF75CFE3B6B93F84430DBB250
:104FE0005BB2B3F1FF3F03D13B6B002283F8442057
:104FF0003B6B93F84530DBB25BB2B3F1FF3F03D1BB
:105000003B6B002283F84520FEF778FE07F114027F
:105010003B1D1046194602F025FD0346002B47D1E3
:10502000386B00F09FFF0346002B3BD0386B04F039
:10503000B7FA03461A4640F23C03C2F200039B5CF7
:105040007033DBB21D46386B04F0AAFA03461A46E9
:1050500040F23C03C2F200039C5C386B04F092FA0D
:105060000346284621461A4605F0ACFE3B6B03F189
:1050700010027B681046194602F03CFB386B00F0CA
:10508000E9FE01F0CFFF0346002B38D14EF6045362
:10509000CEF200034FF080521A60BFF34F8FBFF380
:1050A0006F8F2CE0386B00F0D5FE01F0BBFFDAE625
:1050B000386B00F0CFFE01F0B5FF386B04F070FAEA
:1050C00003461A4640F23C03C2F200039B5C48339D
:1050D000DBB21D46386B04F063FA03461A4640F211
:1050E0003C03C2F200039C5C386B04F04BFA0346AD
:1050F000284621461A4605F065FE002300E0B2E688
:1051000018463837BD46B0BDB0B58EB000AFF860B8
:10511000B9607A603B60FB683B633B6B002B09D155
:105120004FF0500383F31188BFF36F8FBFF34F8F9E
:105130007B62FEE7BB68002B03D13B6B1B6C002B33
:1051400001D1012300E00023002B09D14FF05003CF
:1051500083F31188BFF36F8FBFF34F8F3B62FEE77E
:105160003B68022B03D13B6BDB6B012B01D101238D
:1051700000E00023002B09D14FF0500383F3118886
:10518000BFF36F8FBFF34F8FFB61FEE7FEF73EFE6D
:10519000EFF311824FF0500383F31188BFF36F8F49
:1051A000BFF34F8FBA617B61BB69FB623B6B9A6B4C
:1051B0003B6BDB6B9A4202D33B68022B65D13B6BA6
:1051C00093F8453087F82B30386B04F0E9F9034643
:1051D0001A4640F23C03C2F200039B5C3033DBB260
:1051E0001D46386B04F0DCF903461A4640F23C03D6
:1051F000C2F200039C5C386B04F0C4F903462846F5
:1052000021461A4605F0DEFD386B04F0C9F9034665
:105210001A4640F23C03C2F200039C5C386B04F077
:10522000B1F903461A463B6B9B6BDBB20133DBB231
:10523000204611461A4606F033FA386BB9683A68C8
:1052400000F076FD97F92B30B3F1FF3F12D13B6BA5
:105250005B6A002B16D03B6B2433184602F0F8FA39
:105260000346002B0ED07B68002B0BD07B680122FD
:105270001A6007E097F82B300133DBB2DAB23B6BF0
:1052800083F8452001237B6321E0386B04F088F923
:1052900003461A4640F23C03C2F200039B5C5833BB
:1052A000DBB21D46386B04F07BF903461A4640F228
:1052B0003C03C2F200039C5C386B04F063F90346C4
:1052C000284621461A4605F07DFD00237B63FB6AD4
:1052D0003B613B6983F311887B6B18463837BD46C9
:1052E000B0BD00BFB0B58EB000AF786039607B68EC
:1052F0003B633B6B002B09D14FF0500383F31188C4
:10530000BFF36F8FBFF34F8F3B62FEE73B6B1B6CAE
:10531000002B09D04FF0500383F31188BFF36F8F38
:10532000BFF34F8FFB61FEE73B6B1B68002B03D184
:105330003B6B5B68002B01D1012300E00023002BB5
:1053400009D14FF0500383F31188BFF36F8FBFF380
:105350004F8FBB61FEE7FEF759FDEFF311824FF06F
:10536000500383F31188BFF36F8FBFF34F8F7A61C0
:105370003B617B69FB623B6B9B6BBB623B6BDA6B9C
:10538000BB6A9A4264D93B6B93F8453087F8273063
:10539000386B04F005F903461A4640F23C03C2F2AA
:1053A00000039B5C3033DBB21D46386B04F0F8F829
:1053B00003461A4640F23C03C2F200039C5C386B81
:1053C00004F0E0F80346284621461A4605F0FAFCA8
:1053D000386B04F0E5F803461A4640F23C03C2F28B
:1053E00000039C5C386B04F0CDF803461A463B6B17
:1053F0009B6BDBB20133DBB2204611461A4606F046
:105400004FF9BB6A5A1C3B6B9A6397F92730B3F18B
:10541000FF3F12D13B6B5B6A002B16D03B6B2433F2
:10542000184602F015FA0346002B0ED03B68002BFD
:105430000BD03B6801221A6007E097F82730013350
:10544000DBB2DAB23B6B83F8452001237B6321E0BA
:10545000386B04F0A5F803461A4640F23C03C2F24A
:1054600000039B5C5833DBB21D46386B04F098F8A0
:1054700003461A4640F23C03C2F200039C5C386BC0
:1054800004F080F80346284621461A4605F09AFCA7
:1054900000237B63FB6AFB60FB6883F311887B6BF3
:1054A00018463837BD46B0BDB0B58EB000AFF86015
:1054B000B9607A603B6000237B63FB683B633B6BB6
:1054C000002B09D14FF0500383F31188BFF36F8F86
:1054D000BFF34F8F7B62FEE7BB68002B03D13B6BB2
:1054E0001B6C002B01D1012300E00023002B09D10C
:1054F0004FF0500383F31188BFF36F8FBFF34F8FCB
:105500003B62FEE702F00CFD0346002B02D17B68F4
:10551000002B01D1012300E00023002B09D14FF023
:10552000500383F31188BFF36F8FBFF34F8FFB617D
:10553000FEE7FEF7ADFB3B6B9B6BFB62FB6A002B50
:1055400000F0BA803B6BDB68BB62386BB96800F077
:105550005BFC3B68002B71D1386B04F021F80346EB
:105560001A4640F23C03C2F200039B5C2833DBB2D4
:105570001D46386B04F014F803461A4640F23C030B
:10558000C2F200039C5C386B03F0FCFF0346284624
:1055900021461A4605F016FC386B04F001F8034664
:1055A0001A4640F23C03C2F200039D5C386B03F0E4
:1055B000E9FF03461C46386B03F0F2FF03461A4628
:1055C00040F23C03C2F200039B5C022B07D103F0C4
:1055D000D1FF0346184603F0EFFF034604E03B6BA0
:1055E0009B6BDBB2013BDBB2284621461A4606F034
:1055F00057F8FB6A5A1E3B6B9A633B6B1B68002B88
:1056000004D102F045FE02463B6B5A603B6B1B69BE
:10561000002B4DD03B6B1033184602F019F90346AE
:10562000002B45D04EF60453CEF200034FF08052CB
:105630001A60BFF34F8FBFF36F8F39E0386B03F001
:10564000AFFF03461A4640F23C03C2F200039B5CE4
:105650007833DBB21D46386B03F0A2FF03461A46CF
:1056600040F23C03C2F200039C5C386B03F08AFFFB
:105670000346284621461A4605F0A4FB3B6BBA6A4E
:10568000DA603B6B5B6A002B12D03B6B243318460D
:1056900002F0DEF80346002B0AD04EF60453CEF299
:1056A00000034FF080521A60BFF34F8FBFF36F8F2C
:1056B000FEF724FB0123F3E07B68002B23D1FEF7E8
:1056C0001DFB386B03F06CFF03461A4640F23C03A7
:1056D000C2F200039B5C5033DBB21D46386B03F013
:1056E0005FFF03461A4640F23C03C2F200039C5C93
:1056F000386B03F047FF0346284621461A4605F05B
:1057000061FB0023CCE07B6B002B06D107F1140377
:10571000184602F083F901237B63FEF7EFFA01F0EC
:105720006FFCFEF7B5FA3B6B93F84430DBB25BB22B
:10573000B3F1FF3F03D13B6B002283F844203B6B66
:1057400093F84530DBB25BB2B3F1FF3F03D13B6B63
:10575000002283F84520FEF7D1FA07F114023B1D21
:105760001046194602F07EF90346002B6AD1386BC9
:1057700000F0C0FB0346002B5ED0386B03F010FF37
:1057800003461A4640F23C03C2F200039B5C6833B6
:10579000DBB21D46386B03F003FF03461A4640F2A6
:1057A0003C03C2F200039C5C386B03F0EBFE034643
:1057B000284621461A4605F005FB386B03F0F0FE3B
:1057C00003461A4640F23C03C2F200039B5C022BE4
:1057D00009D003F0CFFE0346184603F0EDFE034662
:1057E000184605F0E5FF3B6B1B68002B08D1FEF760
:1057F0004FFA3B6B5B68184602F0B2FBFEF77EFA8D
:105800003B6B03F124027B681046194601F072FFDE
:10581000386B00F01FFB01F005FC0346002B3ED166
:105820004EF60453CEF200034FF080521A60BFF3DD
:105830004F8FBFF36F8F32E0386B00F00BFB01F03E
:10584000F1FB76E6386B00F005FB01F0EBFB386B03
:1058500000F050FB0346002B21D0386B03F0A0FE74
:1058600003461A4640F23C03C2F200039B5C5033ED
:10587000DBB21D46386B03F093FE03461A4640F236
:105880003C03C2F200039C5C386B03F07BFE0346D2
:10589000284621461A4605F095FA002300E048E61E
:1058A00018463837BD46B0BDB0B58EB000AFF86011
:1058B000B9607A60FB683B633B6B002B09D14FF00A
:1058C000500383F31188BFF36F8FBFF34F8F3B6299
:1058D000FEE7BB68002B03D13B6B1B6C002B01D197
:1058E000012300E00023002B09D14FF0500383F384
:1058F0001188BFF36F8FBFF34F8FFB61FEE7FEF799
:1059000085FAEFF311824FF0500383F31188BFF350
:105910006F8FBFF34F8FBA617B61BB69FB623B6BDB
:105920009B6BBB62BB6A002B68D03B6B93F8443027
:1059300087F82730386B03F033FE03461A4640F2EF
:105940003C03C2F200039B5C3833DBB21D46386B6C
:1059500003F026FE03461A4640F23C03C2F200035F
:105960009C5C386B03F00EFE0346284621461A461F
:1059700005F028FA386B03F013FE03461A4640F28E
:105980003C03C2F200039C5C386B03F0FBFD034652
:105990001A463B6B9B6BDBB2013BDBB220461146E8
:1059A0001A4605F07DFE386BB96800F02DFABB6A27
:1059B0005A1E3B6B9A6397F92730B3F1FF3F12D120
:1059C0003B6B1B69002B16D03B6B1033184601F064
:1059D0003FFF0346002B0ED07B68002B0BD07B686B
:1059E00001221A6007E097F827300133DBB2DAB200
:1059F0003B6B83F8442001237B6321E000237B631E
:105A0000386B03F0CDFD03461A4640F23C03C2F268
:105A100000039B5C6033DBB21D46386B03F0C0FDB6
:105A200003461A4640F23C03C2F200039C5C386B0A
:105A300003F0A8FD0346284621461A4605F0C2F9A0
:105A4000FB6A3B613B6983F311887B6B18463837EF
:105A5000BD46B0BD80B58CB000AF786039607B6862
:105A6000BB62BB6A002B09D14FF0500383F311884E
:105A7000BFF36F8FBFF34F8FFB61FEE73B68002BD7
:105A800003D1BB6A1B6C002B01D1012300E0002372
:105A9000002B09D14FF0500383F31188BFF36F8FB0
:105AA000BFF34F8FBB61FEE7BB6A1B6C002B09D1B4
:105AB0004FF0500383F31188BFF36F8FBFF34F8F05
:105AC0007B61FEE7FEF7A2F9EFF311824FF050037E
:105AD00083F31188BFF36F8FBFF34F8F3A61FB6081
